:020000040008F2
:0400000000482B5930
:200008007622761F17E61800FFFD1800FFFE761F17E0CC00F0FF1AA902009600761F17E651
:200018001A0000021A000001761F17ECCC00FFF0500A9600761AF6077700FF6900061901C2
:0600280056C3FFFF0006B5
:20003000FFFF80F000000001FFFE80F2000000000000FFFE80F4000000000000FFFE80FAEA
:1400400000002B580008FFFE80FC00002B580008000000001D
:20200000FE067648208128A9002328A800008F4800088F00811876482B0476408118020351
:20201000BE00D400D5301E422B430200C2467648208E7648201DFE8600067622761F174CC0
:202020001A2200081A2200101A2200201A2300011A2300041A2600011A2600021A2600046E
:202030001A2600081A2600101A2600201A2600401A2800011A2800021A2A00011A30000101
:202040001A3000021A3000041A3200011A3400011A3400021A3600011A3C00011A3C0004F8
:202050001A3E00011A3E00021A3E00041A3E0008761F174D1A0C00011A180001761A000618
:2020600076220200761F174C1E221E261E281E2A1E301E321E341E361E3C1E3E761F174DC9
:202070001E0C1E18761A00067622761F01C0CC25FF0050559625CC25FF0050AA9625761AE7
:202080000006FE027622761F01C0922990079641924150689629761AFE820006FE107D4EEA
:202090007C4D1E46761F1748920890030EA91EA6924D900380A906A60FA76025CC320002E5
:2020A000FFC00EA91EA6924D9004FFC180A906A60FA76019884E921490FF0EA90FA66013C5
:2020B000CC151F00FFC70EA90F46600D9215901F0EA90F54600888559222903F0EA90FA62D
:2020C000FFE100B17622884E921490FF0EA90FA66010CC151F00FFC70EA90F46600A92150D
:2020D000901F0EA90F546005920E900152016175180EFFFDF6787700064628AC0018563B98
:2020E0001EA60654FF3FFF5A06A6CAABCBAAAF4E1E4A180EFFFE761AF642770092089003A1
:2020F0000EA91EA6924D900380A906A60FA7601ECC320002FFC00EA91EA6924D9004FFC16D
:2021000080A906A60FA7611A6F11FF69764821746F15FF697648217D6F11FF697648219FD0
:202110006F0DFF69764821BF6F09924D61F3520161F5520261EB520561F5F63C770076224B
:20212000761F17481822FFC0064A1E141A0E000102010746FF391E48921690010EA91E4CBF
:202130006F08921690010EA91E4C02015641004802010F4C6103064860F5761A924E964130
:202140009254D500FF699642924696435C4D0658764821EE964F6F0356BF014F924F6121E0
:2021500076229255523F610A761F17489C01CD22FFC0903FCAA896226F08761F1748903F82
:20216000CD22FFC0CAA896221A0E0002F66477009255CD22FFC0903FCAA89622761A6F02FD
:202170007625FE90FF6900067622761F1748CC08FFFC50029608761A00067622761F17484B
:202180001808FFFC761A0006FE022B41FF2007D0764081376F051A3100011831FFFEFF2099
:2021900001FF761F17480F3068F7FF2007FF0F3060FD0A419241520468F3FE8200067622EF
:2021A000761F17481832FFFE1832FFFD761A764821847622CC08FFFC50019608761A6F0D49
:2021B00076221A2E0002761A764821847622CC08FFFC50019608761A402E6DF300067622E8
:2021C000761F17481832FFFE1A320002761A764821847622CC08FFFC50019608761A402E2F
:2021D0006C027625FF6900067622761F174D1836FFFC761A7621FF6900067622761F174D78
:2021E000CC36FFFC50029636761F1748180EFFFD180EFFFE761A7621FF690006FE0A7D4A27
:2021F0007C491E447622064460098F05E700A848761F174D1A0C00016F0276250214074861
:202200008AA91AC40001021407488AA91AC400028A48CCC4FFF0500596C48A48CCC4FF0FC4
:20221000505096C48A48CCC40FFF1AA9500096C46F08022407488AA98F40A000A0C46F195D
:20222000924A61F86F16022807488AA98F40A001A0C46F17022807488AA98F40A002A0C45D
:202230006F10022807488AA98F40A000A0C46F09924961F1520161F6520261E6520561F2FC
:20224000924F934E9C019D012DA912A80EA9BDA90F1677007700E2C4004DFF69E68B0009EC
:2022500076482962E203004602011E420644E2AF0046764822838A48CCC4F0FF1AA90A00F5
:2022600096C48A48CCC4FFF0500A96C4761A021407488AA906C49B009003FF5861F9021418
:202270000748BE008AA928AB00022BAAB60006C49B0090030FAB6002B60193A76102BE0187
:2022800092A6FE8A0006FE12E20300461E44E811FC00AD14640F8F0004B00200A8ABF61F05
:2022900056170056A9480648190C1E4A02181E4C6F1EE8020000E2AF014676482962E8900B
:2022A00048007700E68A00007700E203005002641EAC020056650050F61F56170056A9483D
:2022B000064803501E4A0650FF301E4CE2840048E2AF0146E70000087700E68A0000770043
:2022C000E203004E064460058F05E700A8526F027625020807528AA9064AA3C4910F18ABEB
:2022D000000018AAFFF0CAABCBAA1EA6020807528AA9C2C4884C020C07528AA97EC40210B1
:2022E00007528AA9064E910FA3C418AB000018AAFFF0CAABCBAA1EA6021007528AA9C2C4B1
:2022F000FF69FE920006761BFFF0E20000BDE63006002942561676256F00761BFFF0E20052
:2023000000BDE63006002942561676256F00761BFFF0E20000BDE630060029425616762556
:202310006F00761BFFF0E20000BDE63006002942561676256F00761BFFF0E20000BDE630ED
:2023200006002942561676256F00761BFFF0E20000BDE63006002942561676256F00761B09
:20233000FFF0E20000BDE63006002942561676256F00761BFFF0E20000BDE630060029425C
:20234000561676256F00761BFFF0E20000BDE63006002942561676256F00761BFFF0E20089
:2023500000BDE63006002942561676256F00761BFFF0E20000BDE630060029425616762506
:202360006F00761BFFF0E20000BDE63006002942561676256F00761BFFF0E20000BDE6309D
:2023700006002942561676256F00761BFFF0E20000BDE63006002942561676256F00761BB9
:20238000FFF0E20000BDE63006002942561676256F00761BFFF0E20000BDE630060029420C
:20239000561676256F00761BFFF0E20000BDE63006002942561676256F00761BFFF0E20039
:2023A00000BDE63006002942561676256F00761BFFF0E20000BDE6300600294256167625B6
:2023B0006F00761BFFF0E20000BDE63006002942561676256F00761BFFF0E20000BDE6304D
:2023C00006002942561676256F00761BFFF0E20000BDE63006002942561676256F00761B69
:2023D000FFF0E20000BDE63006002942561676256F00761BFFF0E20000BDE63006002942BC
:2023E000561676256F00761BFFF0E20000BDE63006002942561676256F00761BFFF0E200E9
:2023F00000BDE63006002942561676256F00761BFFF0E20000BDE630060029425616762566
:202400006F00761BFFF0E20000BDE63006002942561676256F00761BFFF0E20000BDE630FC
:2024100006002942561676256F00761BFFF0E20000BDE63006002942561676256F00761B18
:20242000FFF0E20000BDE63006002942561676256F00761BFFF0E20000BDE630060029426B
:20243000561676256F00761BFFF0E20000BDE63006002942561676256F00761BFFF0E20098
:2024400000BDE63006002942561676256F00761BFFF0E20000BDE630060029425616762515
:202450006F00761BFFF0E20000BDE63006002942561676256F00761BFFF0E20000BDE630AC
:2024600006002942561676256F00761BFFF0E20000BDE63006002942561676256F00761BC8
:20247000FFF0E20000BDE63006002942561676256F00761BFFF0E20000BDE630060029421B
:20248000561676256F00761BFFF0E20000BDE63006002942561676256F00761BFFF0E20048
:2024900000BDE63006002942561676256F00761BFFF0E20000BDE6300600294256167625C5
:2024A0006F00761BFFF0E20000BDE63006002942561676256F00761BFFF0E20000BDE6305C
:2024B00006002942561676256F00761BFFF0E20000BDE63006002942561676256F00761B78
:2024C000FFF0E20000BDE63006002942561676256F00761BFFF0E20000BDE63006002942CB
:2024D000561676256F00761BFFF0E20000BDE63006002942561676256F00761BFFF0E200F8
:2024E00000BDE63006002942561676256F00761BFFF0E20000BDE630060029425616762575
:2024F0006F00761BFFF0E20000BDE63006002942561676256F00761BFFF0E20000BDE6300C
:2025000006002942561676256F00761BFFF0E20000BDE63006002942561676256F00761B27
:20251000FFF0E20000BDE63006002942561676256F00761BFFF0E20000BDE630060029427A
:20252000561676256F00761BFFF0E20000BDE63006002942561676256F00761BFFF0E200A7
:2025300000BDE63006002942561676256F00761BFFF0E20000BDE630060029425616762524
:202540006F00761BFFF0E20000BDE63006002942561676256F00761BFFF0E20000BDE630BB
:2025500006002942561676256F00761BFFF0E20000BDE63006002942561676256F00761BD7
:20256000FFF0E20000BDE63006002942561676256F00761BFFF0E20000BDE630060029422A
:20257000561676256F00761BFFF0E20000BDE63006002942561676256F00761BFFF0E20057
:2025800000BDE63006002942561676256F00761BFFF0E20000BDE6300600294256167625D4
:202590006F00761BFFF0E20000BDE63006002942561676256F00761BFFF0E20000BDE6306B
:2025A00006002942561676256F00761BFFF0E20000BDE63006002942561676256F00761B87
:2025B000FFF0E20000BDE63006002942561676256F00761BFFF0E20000BDE63006002942DA
:2025C0005616E28000BEFFF176177602761BFFF0E20000BDE63006002942561676256F005E
:2025D000FE0476220200761F01F01E3C761F01F11E3C761F01F71E3C8F007C00A8422B4344
:2025E00092431BA9010067152901BE00901F5206610B924352236108523061065603014331
:2025F00007428AA9C2C40A4392431BA9010068EF8F007F00A8422B4392435220670C290141
:20260000BE005603014307428AA9C2C40A439243522068F8761AFE840006FE0E7C4B974A9D
:202610009649901F964C9249900F964D92499007964E29018F007C009249FFC4FF845603D8
:2026200001A9560100A4A842924A606F924B520F69026F6B924CFFC3560301A907420906E2
:202630001E44924CFFC3560301A9074209201E46924CFFC2560301A9074209281E48762295
:2026400002038A44FF5A5603014D16A9563BFF55FF5A92ABC0C492AAC0CC0203FF5A8A46F3
:202650005603014D16A9563BFF55FF5A92ABC0C492AAC0CC0203FF5A924BFFC188A98A4641
:20266000A9A989A6FF5A5603014D16A9563BFF5A92AB98C492AA98CC0203894B8A44FF5AF7
:202670005603014D16A9563BFF5A92AB98C492AA98CC0203FF5A8A485603024E16A9563B98
:20268000FF55FF5A92ABC0C492AAC0CC0203894A8A48FF5A5603024E16A9563BFF5A92AB72
:2026900098C492AA98CC761AFE8E0006FE187C5797569655901F0EA91E4E9255900F0EA93C
:2026A0001E502D4E0201563B1E5229018F007C009255FFC4FF84560301A9560100A4A842E3
:2026B000020A07421E44020C07421E46021007421E48021207421E4A064EFF43FF30074204
:2026C00009021E4C76228A440652FF55C0C4C1CC92565201601F8A44065298C499CC425728
:2026D0006C068A4A065298C499CC6F068A4A0652FF55C0C4C1CC9257900561078A46065277
:2026E000FF55C0C4C1CC6F238A46065298C499CC6F1E8A440652FF55C0C4C1CC40576C07D8
:2026F0008A460652FF55C0C4C1CC6F058A46065298C499CC41576C068A48065298C499CCEB
:202700006F068A480652FF55C0C4C1CC92579030FFC30EA91E5402038A4CFF5A5603015043
:2027100016A9563BFF55FF5A92ABC0C492AAC0CC0654610CA354560301508A4C16A9563B95
:20272000FF5A92AB98C492AA98CC761AFE980006FE0A974A9649901F0EA91E462D460201D3
:20273000563B1E4829018F007C009249FFC4FF84560301A9560100A4A842023C07421E446B
:202740007622924A61068A44064898C499CC6F068A440648FF55C0C4C1CC761AFE8A0006AD
:20275000FE0296417622761F01E49603761AFE820006FE0296417622761F01E49604761ABE
:20276000FE820006FE0296417622761F01E49605761AFE820006FE0296417622761F01E450
:20277000960C761AFE820006FE0296417622761F01E4960D761AFE820006FE049643FFC451
:2027800029018F007F00FF81560301A9560100A4A8429243901F2DA906C456221EA692A601
:2027900090019644FE840006FE0697469645FFC429018F007F00FF81560301A9560100A401
:2027A000A84202011EA69245901F2DA906A6563B1E449246600406441EE46F0306441ED437
:2027B000FE860006764825D07622761F01F002001E201E22761F01F11E208F000CC0A82046
:2027C000761F01F71E201E22761F01F01E10761F01F11E10761F01F71E10761F01F01E1214
:2027D000761F01F11E12761F01F71E12761F01F0CC00FF0050019600920090FF1AA9010058
:2027E0009600CC01FF0050019601920190FF1AA901009601761F01F1CC00FF0050019600D9
:2027F000920090FF1AA901009600761F01F7CC00FF0050019600920090FF1AA90100960094
:20280000CC01FF0050019601761F01F002001E021E04761F01F1A802761F01F71E021E043A
:20281000761F17601E0A761F01F019011E14761F176002001E18761F01F719011E14761FF0
:202820001760180AEFFF761F01F01814EFFF761F1760180ADFFF761F01F01814DFFF761F40
:202830001760180BFFEF761F01F01815FFEF761F1760180BFFDF761F01F01815FFDF761F2C
:202840001760180BEFFF761F01F01815EFFF761F17601A180001761F01F71A140001761FBF
:2028500017601A180004761F01F71A140004761F17601818FFF7761F01F71814FFF7761F86
:2028600017601A180010761F01F71A140010761F17601A180040761F01F71A140040761FC6
:2028700017601A190004761F01F71A150004761F01F01A0C00011806FFFC1A0C00021806CE
:20288000FFF31A0C00041806FFCF1A0C00081806FF3F1A0C00101806FCFF1A0C00201806F3
:20289000F3FF1A0C00401806CFFF1A0C008018063FFF1A0C01001807FFFC1A0C020018075A
:2028A000FFF31A0C04001807FFCF1A0C08001807FF3F1A0C10001807FCFF1A0C20001807CF
:2028B000F3FF180ADFFFCC03F3FF1AA9080096031A0D00011808FFFC180BFFFECC04FFFCC3
:2028C000500296041A0D00021808FFF3180BFFFDCC04FFF3500896041A0D00041808FFCFE5
:2028D000180BFFFB1A0D00101808FCFF1A0B00101A0D00201808F3FF1A0B0020180DFFBFC3
:2028E000CC08CFFF1AA910009608CC04CFFF1AA910009604180DFF7FCC083FFF1AA9400002
:2028F00096081A0D01001809FFFC180BFEFF180DEFFFCC09FCFF1AA901009609CC05FCFFB4
:202900001AA901009605180DDFFFCC09F3FF1AA904009609761F01F11A0C00011806FFFC61
:202910001A0A0001761F01FC1A0C0001761F01F11A0C00021806FFF31A0A0002761F01FC52
:202920001A0C0002761F01F11A0C008018063FFF1A0A0080761F01FC1A0C0080761F01F183
:202930001A0C01001807FFFC1A0A0100761F01FC1A0C0100761F01F11A0C02001807FFF3A8
:202940001A0A0200761F01FC1A0C0200761F01F71A0C00081806FF3F180AFFF71A14000238
:202950001A1400801A1402001A1420001A1440001A1480001A1500021A1500101A15002060
:20296000761A00063ABDB2BDAABDA2BDFE022901BFA90F12FF58615B5CA8917F08A800808B
:202970001E4293A4FFD65CA8BFA90F1661675DA8917F08A8008059A858A993A5FFD65DA829
:2029800093A471A518A8010097A618A400FF18A500FFDC7F92A49EA596A7644D08A9FF0102
:20299000623E93A192A0FF3659A858A90642FF35F60E1FA15BA901A3F60A1FA1562D04A219
:2029A0002DA336A0FF40F60B1FA1FF339B00FF30FF540CA295A3FF4008A70001F61FFF77C2
:2029B0000920FF4008A70001F61FFF77FF5A92A7652208A9FF016313A9A9FF46917F5BA87A
:2029C0005AA925A695A7FF960CA295A3BDA90F12FE8282BE86BE8BBE8EBE00069B00FF575B
:2029D00008A8FF7FFF5A93A660F228A8800071AA92AB6FEDFF2000006FEAFF5A93A418A809
:2029E0000100FF965CA8A9A908A8FF7F1CA88000CBA46FDD28AD0400FF69561F5616561A2C
:2029F000E61002002940761F00002902761B76482B6452006142762228A9003028A8000862
:202A00000901611B76C8003029046F0F9B0024A9DF016C04290424A8DF011EA6F7A1248680
:202A100006A781A109011EA724A96303FF5C3B0459A9DF010009FFEC28A9FFFF28A8FFFFC8
:202A2000090161058F3FFFFF76482AE0761A76482B6628A9FFFF28A8FFFF0901610E76FF28
:202A3000FFFF6F06DF01C3BD1EA73E67C5BE24A9DF0124A8FF5860F776482B2176482A6C41
:202A400029022904565FFF5A0642565F1E420200F61F5617004206AB5632290276202902C8
:202A50002904565FFF5A0642FF561E420200F61F56170042563229027620FF5A0200F61FAF
:202A600056170042A9A97620FF5A0200F61F56170042762077006F00B2BD761F020359A919
:202A70009230610D28ABFFFF28AAFFFF28A9FFFF28A8FFFF0FAB6103767FFFFF761F02032D
:202A8000C53A3E67761F0203063461041EA792A13E67761F0203063261031EA73E6776485E
:202A90002A6A8BBE00063B10761F00331820FFFE2B222B242B262B282B2A2B2C2B2E2B305B
:202AA0002B322B342B362B382B232B252B272B292B2B2B2D2B2F2B312B332B352B372B396A
:202AB000FF690006761F00331A2000012821FFFF2910FF690006FE068F088000A8428F0013
:202AC0000D00A844020607421E42020607441E4476222B459245527D670D83448A42A0A999
:202AD000C4840902A8421E44C2C50A459245527D68F5761A761F00331A200001FE86000651
:202AE000B2BDAABDA2BDFE0882A4D1005ACB6F155CAD2901560303A107A3DC8809025CA4B2
:202AF00083A9020876482B04064261068A44834676482B045ACBD90192A254A166EAFE8872
:202B000082BE86BE8BBE00065200A8ABC5A4610788A9DE815C857C87000EFFFE88A90FA607
:202B1000610F5300610D9DFF5CA876BFFFFE92859687000EFFFE92859687000CFFF8A9A4DF
:202B20000006020028ABFFFF28AAFFFF19010FAB60049A00D4006F05A9A492C4A9A4DC0204
:202B300076482B33000676482B428F01D4EEA8A97640813776482B4F8F01D4EEA8A9764096
:202B400081376F0076482000FF2004AE76408137764827B276482A9376482ABB0006000670
:202B5000761F0203A83C0006761F0203A83A00060006561F7622B9C028290068761A004842
:0E2B600029EA96BD761200069A0100060006CC
:2080000025AF000825AF000825AF000825AF000825AF000825AF000825AF000825AF000880
:2080100025AF000825AF000825AF000825AF000825AF000822F3000822FD0008230700088E
:2080200023110008231B000823250008232F00082339000823430008234D00082357000848
:2080300023610008236B000823750008237F00082389000823930008239D000823A70008B8
:2080400023B1000823BB000825AF000823C5000823CF000823D9000823E3000823ED00086E
:2080500023F7000824010008240B000824150008241F0008242900082433000825AF00086E
:20806000243D00082447000824510008245B000824650008246F00082479000825AF000873
:2080700024830008248D000825AF000825AF000825AF000825AF000825AF000825AF000860
:208080002497000825AF000825AF000825AF000825AF000825AF000825AF000825AF000819
:2080900024A1000824AB000825AF000825AF000825AF000825AF000824B5000825AF0008FF
:2080A00025AF000825AF000825AF000825AF000825AF000825AF000825AF000825AF0008E0
:2080B00024BF000824C9000824D3000824DD000824E7000824F1000825AF000825AF0008E0
:2080C00024FB000825050008250F00082519000825230008252D000825AF000825AF000863
:2080D0002537000825410008254B000825550008255F00082569000825730008257D000858
:2080E00025AF000825AF000825AF000825AF000825AF000825AF000825AF000825AF0008A0
:2080F0002587000825910008259B000825AF000825A5000825AF000825AF000825AF0008F4
:00000001FF
